{
  "_format": "hh-sol-artifact-1",
  "contractName": "FlashLoanArbitrage",
  "sourceName": "contracts/FlashLoanArbitrage.sol",
  "abi": [
    {
      "inputs": [
        {
          "internalType": "address",
          "name": "_factory",
          "type": "address"
        },
        {
          "internalType": "address",
          "name": "_sushiSwapRouter",
          "type": "address"
        },
        {
          "internalType": "uint256",
          "name": "_deadline",
          "type": "uint256"
        }
      ],
      "stateMutability": "nonpayable",
      "type": "constructor"
    },
    {
      "inputs": [],
      "name": "deadline",
      "outputs": [
        {
          "internalType": "uint256",
          "name": "",
          "type": "uint256"
        }
      ],
      "stateMutability": "view",
      "type": "function"
    },
    {
      "inputs": [
        {
          "internalType": "address",
          "name": "token0",
          "type": "address"
        },
        {
          "internalType": "address",
          "name": "token1",
          "type": "address"
        },
        {
          "internalType": "uint256",
          "name": "amount0",
          "type": "uint256"
        },
        {
          "internalType": "uint256",
          "name": "amount1",
          "type": "uint256"
        }
      ],
      "name": "executeTrade",
      "outputs": [],
      "stateMutability": "nonpayable",
      "type": "function"
    },
    {
      "inputs": [],
      "name": "factory",
      "outputs": [
        {
          "internalType": "address",
          "name": "",
          "type": "address"
        }
      ],
      "stateMutability": "view",
      "type": "function"
    },
    {
      "inputs": [],
      "name": "sushiSwapRouter",
      "outputs": [
        {
          "internalType": "contract IUniswapV2Router02",
          "name": "",
          "type": "address"
        }
      ],
      "stateMutability": "view",
      "type": "function"
    },
    {
      "inputs": [
        {
          "internalType": "address",
          "name": "_sender",
          "type": "address"
        },
        {
          "internalType": "uint256",
          "name": "_amount0",
          "type": "uint256"
        },
        {
          "internalType": "uint256",
          "name": "_amount1",
          "type": "uint256"
        },
        {
          "internalType": "bytes",
          "name": "_data",
          "type": "bytes"
        }
      ],
      "name": "uniswapV2Call",
      "outputs": [],
      "stateMutability": "nonpayable",
      "type": "function"
    }
  ],
  "bytecode": "0x608060405234801561001057600080fd5b50604051610fcd380380610fcd8339818101604052606081101561003357600080fd5b5080516020820151604090920151600080546001600160a01b039384166001600160a01b03199182161790915560019190915560028054929093169116179055610f4b806100826000396000f3fe608060405234801561001057600080fd5b50600436106100575760003560e01c806310d1e85c1461005c57806329dcb0cf146100ea578063b907861614610104578063c45a015514610140578063fd829a2314610164575b600080fd5b6100e86004803603608081101561007257600080fd5b6001600160a01b0382351691602081013591604082013591908101906080810160608201356401000000008111156100a957600080fd5b8201836020820111156100bb57600080fd5b803590602001918460018302840111640100000000831117156100dd57600080fd5b50909250905061016c565b005b6100f26106e6565b60408051918252519081900360200190f35b6100e86004803603608081101561011a57600080fd5b506001600160a01b038135811691602081013590911690604081013590606001356106ec565b6101486108cd565b604080516001600160a01b039092168252519081900360200190f35b6101486108dc565b60408051600280825260608083018452926020830190803683370190505090506000851561019a578561019c565b845b90506000336001600160a01b0316630dfe16816040518163ffffffff1660e01b815260040160206040518083038186803b1580156101d957600080fd5b505afa1580156101ed573d6000803e3d6000fd5b505050506040513d602081101561020357600080fd5b50516040805163d21220a760e01b81529051919250600091339163d21220a7916004808301926020929190829003018186803b15801561024257600080fd5b505afa158015610256573d6000803e3d6000fd5b505050506040513d602081101561026c57600080fd5b5051600054909150610288906001600160a01b031683836108eb565b6001600160a01b0316336001600160a01b0316146102df576040805162461bcd60e51b815260206004820152600f60248201526e125b9d985b1a590814995c5d595cdd608a1b604482015290519081900360640190fd5b8715806102ea575086155b6102f357600080fd5b87156102ff5781610301565b805b8460008151811061030e57fe5b6001600160a01b039092166020928302919091019091015287156103325780610334565b815b8460018151811061034157fe5b6001600160a01b0390921660209283029190910190910152600088156103675782610369565b815b6002546040805163095ea7b360e01b81526001600160a01b0392831660048201526024810188905290519293509083169163095ea7b3916044808201926020929091908290030181600087803b1580156103c257600080fd5b505af11580156103d6573d6000803e3d6000fd5b505050506040513d60208110156103ec57600080fd5b505060008054610406906001600160a01b031686886109ab565b60008151811061041257fe5b602002602001015190506000600260009054906101000a90046001600160a01b03166001600160a01b03166338ed173987848a336001546040518663ffffffff1660e01b81526004018086815260200185815260200180602001846001600160a01b03166001600160a01b03168152602001838152602001828103825285818151815260200191508051906020019060200280838360005b838110156104c25781810151838201526020016104aa565b505050509050019650505050505050600060405180830381600087803b1580156104eb57600080fd5b505af11580156104ff573d6000803e3d6000fd5b505050506040513d6000823e601f3d908101601f19168201604052602081101561052857600080fd5b810190808051604051939291908464010000000082111561054857600080fd5b90830190602082018581111561055d57600080fd5b825186602082028301116401000000008211171561057a57600080fd5b82525081516020918201928201910280838360005b838110156105a757818101518382015260200161058f565b505050509050016040525050506001815181106105c057fe5b6020026020010151905060008b6000146105da57846105dc565b855b6040805163a9059cbb60e01b81523360048201526024810186905290519192506001600160a01b0383169163a9059cbb916044808201926020929091908290030181600087803b15801561062f57600080fd5b505af1158015610643573d6000803e3d6000fd5b505050506040513d602081101561065957600080fd5b50506040805163a9059cbb60e01b8152326004820152848403602482015290516001600160a01b0383169163a9059cbb9160448083019260209291908290030181600087803b1580156106ab57600080fd5b505af11580156106bf573d6000803e3d6000fd5b505050506040513d60208110156106d557600080fd5b505050505050505050505050505050565b60015481565b600080546040805163e6a4390560e01b81526001600160a01b03888116600483015287811660248301529151919092169163e6a43905916044808301926020929190829003018186803b15801561074257600080fd5b505afa158015610756573d6000803e3d6000fd5b505050506040513d602081101561076c57600080fd5b505190506001600160a01b0381166107cb576040805162461bcd60e51b815260206004820152601e60248201527f436f756c64206e6f742066696e6420706f6f6c206f6e20756e69737761700000604482015290519081900360640190fd5b6040805180820182526009815268333630b9b43637b0b760b91b60208201908152915163022c0d9f60e01b8152600481018681526024820186905230604483018190526080606484019081528451608485015284516001600160a01b0388169663022c0d9f968b968b9691949193919260a49091019180838360005b8381101561085f578181015183820152602001610847565b50505050905090810190601f16801561088c5780820380516001836020036101000a031916815260200191505b5095505050505050600060405180830381600087803b1580156108ae57600080fd5b505af11580156108c2573d6000803e3d6000fd5b505050505050505050565b6000546001600160a01b031681565b6002546001600160a01b031681565b60008060006108fa8585610af8565b604080516bffffffffffffffffffffffff19606094851b811660208084019190915293851b81166034830152825160288184030181526048830184528051908501206001600160f81b031960688401529a90941b9093166069840152607d8301989098527f199766a94ebdbc73b48321d8b1c652061e46f522f99918baecc4d027dd149188609d808401919091528851808403909101815260bd909201909752805196019590952095945050505050565b6060600282511015610a04576040805162461bcd60e51b815260206004820152601e60248201527f556e697377617056324c6962726172793a20494e56414c49445f504154480000604482015290519081900360640190fd5b815167ffffffffffffffff81118015610a1c57600080fd5b50604051908082528060200260200182016040528015610a46578160200160208202803683370190505b5090508281600183510381518110610a5a57fe5b60209081029190910101528151600019015b8015610af057600080610aa987866001860381518110610a8857fe5b6020026020010151878681518110610a9c57fe5b6020026020010151610bd6565b91509150610acb848481518110610abc57fe5b60200260200101518383610ca4565b846001850381518110610ada57fe5b6020908102919091010152505060001901610a6c565b509392505050565b600080826001600160a01b0316846001600160a01b03161415610b4c5760405162461bcd60e51b8152600401808060200182810382526025815260200180610ec96025913960400191505060405180910390fd5b826001600160a01b0316846001600160a01b031610610b6c578284610b6f565b83835b90925090506001600160a01b038216610bcf576040805162461bcd60e51b815260206004820152601e60248201527f556e697377617056324c6962726172793a205a45524f5f414444524553530000604482015290519081900360640190fd5b9250929050565b6000806000610be58585610af8565b509050600080610bf68888886108eb565b6001600160a01b0316630902f1ac6040518163ffffffff1660e01b815260040160606040518083038186803b158015610c2e57600080fd5b505afa158015610c42573d6000803e3d6000fd5b505050506040513d6060811015610c5857600080fd5b5080516020909101516dffffffffffffffffffffffffffff91821693501690506001600160a01b0387811690841614610c92578082610c95565b81815b90999098509650505050505050565b6000808411610ce45760405162461bcd60e51b815260040180806020018281038252602c815260200180610e9d602c913960400191505060405180910390fd5b600083118015610cf45750600082115b610d2f5760405162461bcd60e51b8152600401808060200182810382526028815260200180610eee6028913960400191505060405180910390fd5b6000610d536103e8610d47868863ffffffff610d9416565b9063ffffffff610d9416565b90506000610d6d6103e5610d47868963ffffffff610dfd16565b9050610d8a6001828481610d7d57fe5b049063ffffffff610e4d16565b9695505050505050565b6000811580610daf57505080820282828281610dac57fe5b04145b610df7576040805162461bcd60e51b815260206004820152601460248201527364732d6d6174682d6d756c2d6f766572666c6f7760601b604482015290519081900360640190fd5b92915050565b80820382811115610df7576040805162461bcd60e51b815260206004820152601560248201527464732d6d6174682d7375622d756e646572666c6f7760581b604482015290519081900360640190fd5b80820182811015610df7576040805162461bcd60e51b815260206004820152601460248201527364732d6d6174682d6164642d6f766572666c6f7760601b604482015290519081900360640190fdfe556e697377617056324c6962726172793a20494e53554646494349454e545f4f55545055545f414d4f554e54556e697377617056324c6962726172793a204944454e544943414c5f414444524553534553556e697377617056324c6962726172793a20494e53554646494349454e545f4c4951554944495459a26469706673582212208e7cc75389aeaa3b0f049d728288f79ad5ffdb171ae4bad628e1fade5200b1d964736f6c63430006060033",
  "linkReferences": {},
  "deployedLinkReferences": {}
}