{
  "_format": "hh-sol-artifact-1",
  "contractName": "Flash",
  "sourceName": "contracts/Flash.sol",
  "abi": [
    {
      "inputs": [
        {
          "internalType": "address",
          "name": "_factory0",
          "type": "address"
        },
        {
          "internalType": "address",
          "name": "_factory1",
          "type": "address"
        },
        {
          "internalType": "address",
          "name": "_router0",
          "type": "address"
        },
        {
          "internalType": "address",
          "name": "_router1",
          "type": "address"
        }
      ],
      "stateMutability": "nonpayable",
      "type": "constructor"
    },
    {
      "inputs": [
        {
          "internalType": "address",
          "name": "swapCaller",
          "type": "address"
        },
        {
          "internalType": "uint256",
          "name": "amount0",
          "type": "uint256"
        },
        {
          "internalType": "uint256",
          "name": "amount1",
          "type": "uint256"
        },
        {
          "internalType": "bytes",
          "name": "_data",
          "type": "bytes"
        }
      ],
      "name": "uniswapV2Call",
      "outputs": [],
      "stateMutability": "nonpayable",
      "type": "function"
    }
  ],
  "bytecode": "0x608060405234801561001057600080fd5b50604051610fad380380610fad8339818101604052608081101561003357600080fd5b50805160208201516040830151606090930151600080546001600160a01b039485166001600160a01b0319918216179091556001805493851693821693909317909255600280549484169483169490941790935560038054929093169116179055610f0a806100a36000396000f3fe608060405234801561001057600080fd5b506004361061002b5760003560e01c806310d1e85c14610030575b600080fd5b6100bc6004803603608081101561004657600080fd5b6001600160a01b03823516916020810135916040820135919081019060808101606082013564010000000081111561007d57600080fd5b82018360208201111561008f57600080fd5b803590602001918460018302840111640100000000831117156100b157600080fd5b5090925090506100be565b005b60408051600280825260608083018452926020830190803683375050604080516002808252606080830184529495509092509060208301908036833701905050905060008590506000336001600160a01b0316630dfe16816040518163ffffffff1660e01b815260040160206040518083038186803b15801561014057600080fd5b505afa158015610154573d6000803e3d6000fd5b505050506040513d602081101561016a57600080fd5b50516040805163d21220a760e01b81529051919250600091339163d21220a7916004808301926020929190829003018186803b1580156101a957600080fd5b505afa1580156101bd573d6000803e3d6000fd5b505050506040513d60208110156101d357600080fd5b50518551909150829086906000906101e757fe5b60200260200101906001600160a01b031690816001600160a01b031681525050808560018151811061021557fe5b60200260200101906001600160a01b031690816001600160a01b031681525050808460008151811061024357fe5b60200260200101906001600160a01b031690816001600160a01b031681525050818460018151811061027157fe5b6001600160a01b039283166020918202929092010152600054610296911683836108aa565b6001600160a01b0316336001600160a01b0316146102ef576040805162461bcd60e51b815260206004820152601160248201527039b2b73232b9103737ba1030903830b4b960791b604482015290519081900360640190fd5b8815806102fa575087155b61030357600080fd5b6002546040805163095ea7b360e01b81526001600160a01b03928316600482015260648602602482015290519184169163095ea7b3916044808201926020929091908290030181600087803b15801561035b57600080fd5b505af115801561036f573d6000803e3d6000fd5b505050506040513d602081101561038557600080fd5b50506003546040805163095ea7b360e01b81526001600160a01b03928316600482015260648602602482015290519184169163095ea7b3916044808201926020929091908290030181600087803b1580156103df57600080fd5b505af11580156103f3573d6000803e3d6000fd5b505050506040513d602081101561040957600080fd5b50506002546040805163095ea7b360e01b81526001600160a01b03928316600482015260648602602482015290519183169163095ea7b3916044808201926020929091908290030181600087803b15801561046357600080fd5b505af1158015610477573d6000803e3d6000fd5b505050506040513d602081101561048d57600080fd5b50506003546040805163095ea7b360e01b81526001600160a01b03928316600482015260648602602482015290519183169163095ea7b3916044808201926020929091908290030181600087803b1580156104e757600080fd5b505af11580156104fb573d6000803e3d6000fd5b505050506040513d602081101561051157600080fd5b50506000805490925061052f91506001600160a01b0316838661096a565b60008151811061053b57fe5b602002602001015190506000600360009054906101000a90046001600160a01b03166001600160a01b0316638803dbee8385873342610e10016040518663ffffffff1660e01b81526004018086815260200185815260200180602001846001600160a01b03166001600160a01b03168152602001838152602001828103825285818151815260200191508051906020019060200280838360005b838110156105ed5781810151838201526020016105d5565b505050509050019650505050505050600060405180830381600087803b15801561061657600080fd5b505af115801561062a573d6000803e3d6000fd5b505050506040513d6000823e601f3d908101601f19168201604052602081101561065357600080fd5b810190808051604051939291908464010000000082111561067357600080fd5b90830190602082018581111561068857600080fd5b82518660208202830111640100000000821117156106a557600080fd5b82525081516020918201928201910280838360005b838110156106d25781810151838201526020016106ba565b505050509050016040525050506001815181106106eb57fe5b60200260200101519050600360009054906101000a90046001600160a01b03166001600160a01b03166338ed17398285036000878e42610e10016040518663ffffffff1660e01b81526004018086815260200185815260200180602001846001600160a01b03166001600160a01b03168152602001838152602001828103825285818151815260200191508051906020019060200280838360005b8381101561079e578181015183820152602001610786565b505050509050019650505050505050600060405180830381600087803b1580156107c757600080fd5b505af11580156107db573d6000803e3d6000fd5b505050506040513d6000823e601f3d908101601f19168201604052602081101561080457600080fd5b810190808051604051939291908464010000000082111561082457600080fd5b90830190602082018581111561083957600080fd5b825186602082028301116401000000008211171561085657600080fd5b82525081516020918201928201910280838360005b8381101561088357818101518382015260200161086b565b5050505090500160405250505060018151811061089c57fe5b505050505050505050505050565b60008060006108b98585610ab7565b604080516bffffffffffffffffffffffff19606094851b811660208084019190915293851b81166034830152825160288184030181526048830184528051908501206001600160f81b031960688401529a90941b9093166069840152607d8301989098527f199766a94ebdbc73b48321d8b1c652061e46f522f99918baecc4d027dd149188609d808401919091528851808403909101815260bd909201909752805196019590952095945050505050565b60606002825110156109c3576040805162461bcd60e51b815260206004820152601e60248201527f556e697377617056324c6962726172793a20494e56414c49445f504154480000604482015290519081900360640190fd5b815167ffffffffffffffff811180156109db57600080fd5b50604051908082528060200260200182016040528015610a05578160200160208202803683370190505b5090508281600183510381518110610a1957fe5b60209081029190910101528151600019015b8015610aaf57600080610a6887866001860381518110610a4757fe5b6020026020010151878681518110610a5b57fe5b6020026020010151610b95565b91509150610a8a848481518110610a7b57fe5b60200260200101518383610c63565b846001850381518110610a9957fe5b6020908102919091010152505060001901610a2b565b509392505050565b600080826001600160a01b0316846001600160a01b03161415610b0b5760405162461bcd60e51b8152600401808060200182810382526025815260200180610e886025913960400191505060405180910390fd5b826001600160a01b0316846001600160a01b031610610b2b578284610b2e565b83835b90925090506001600160a01b038216610b8e576040805162461bcd60e51b815260206004820152601e60248201527f556e697377617056324c6962726172793a205a45524f5f414444524553530000604482015290519081900360640190fd5b9250929050565b6000806000610ba48585610ab7565b509050600080610bb58888886108aa565b6001600160a01b0316630902f1ac6040518163ffffffff1660e01b815260040160606040518083038186803b158015610bed57600080fd5b505afa158015610c01573d6000803e3d6000fd5b505050506040513d6060811015610c1757600080fd5b5080516020909101516dffffffffffffffffffffffffffff91821693501690506001600160a01b0387811690841614610c51578082610c54565b81815b90999098509650505050505050565b6000808411610ca35760405162461bcd60e51b815260040180806020018281038252602c815260200180610e5c602c913960400191505060405180910390fd5b600083118015610cb35750600082115b610cee5760405162461bcd60e51b8152600401808060200182810382526028815260200180610ead6028913960400191505060405180910390fd5b6000610d126103e8610d06868863ffffffff610d5316565b9063ffffffff610d5316565b90506000610d2c6103e5610d06868963ffffffff610dbc16565b9050610d496001828481610d3c57fe5b049063ffffffff610e0c16565b9695505050505050565b6000811580610d6e57505080820282828281610d6b57fe5b04145b610db6576040805162461bcd60e51b815260206004820152601460248201527364732d6d6174682d6d756c2d6f766572666c6f7760601b604482015290519081900360640190fd5b92915050565b80820382811115610db6576040805162461bcd60e51b815260206004820152601560248201527464732d6d6174682d7375622d756e646572666c6f7760581b604482015290519081900360640190fd5b80820182811015610db6576040805162461bcd60e51b815260206004820152601460248201527364732d6d6174682d6164642d6f766572666c6f7760601b604482015290519081900360640190fdfe556e697377617056324c6962726172793a20494e53554646494349454e545f4f55545055545f414d4f554e54556e697377617056324c6962726172793a204944454e544943414c5f414444524553534553556e697377617056324c6962726172793a20494e53554646494349454e545f4c4951554944495459a264697066735822122021ed454cd6c01a49721228bc65443558f5830f98fa9c0ed19b3edebe4911c27264736f6c63430006060033",
  "linkReferences": {},
  "deployedLinkReferences": {}
}