{
  "_format": "hh-sol-artifact-1",
  "contractName": "Arbitrager",
  "sourceName": "contracts/Arbitrager.sol",
  "abi": [
    {
      "inputs": [
        {
          "internalType": "address",
          "name": "_sFactory",
          "type": "address"
        },
        {
          "internalType": "address",
          "name": "_uRouter",
          "type": "address"
        }
      ],
      "stateMutability": "nonpayable",
      "type": "constructor"
    },
    {
      "inputs": [
        {
          "internalType": "address",
          "name": "_sender",
          "type": "address"
        },
        {
          "internalType": "uint256",
          "name": "_amount0",
          "type": "uint256"
        },
        {
          "internalType": "uint256",
          "name": "_amount1",
          "type": "uint256"
        },
        {
          "internalType": "bytes",
          "name": "_data",
          "type": "bytes"
        }
      ],
      "name": "uniswapV2Call",
      "outputs": [],
      "stateMutability": "nonpayable",
      "type": "function"
    }
  ],
  "bytecode": "0x60c060405234801561001057600080fd5b50604051610ff8380380610ff88339818101604052604081101561003357600080fd5b5080516020909101516001600160601b0319606092831b8116608052911b1660a05260805160601c60a05160601c610f7061008860003980610532528061061552508061019a52806105d55250610f706000f3fe608060405234801561001057600080fd5b506004361061002b5760003560e01c806310d1e85c14610030575b600080fd5b6100bc6004803603608081101561004657600080fd5b6001600160a01b03823516916020810135916040820135919081019060808101606082013564010000000081111561007d57600080fd5b82018360208201111561008f57600080fd5b803590602001918460018302840111640100000000831117156100b157600080fd5b5090925090506100be565b005b604080516002808252606080830184529260208301908036833701905050905060006060848460408110156100f257600080fd5b8135919081019060408101602082013564010000000081111561011457600080fd5b82018360208201111561012657600080fd5b8035906020019184602083028401116401000000008311171561014857600080fd5b9190808060200260200160405190810160405280939291908181526020018383602002808284376000920182905250979950929750508c15945061019193505050505787610193565b865b90506102867f0000000000000000000000000000000000000000000000000000000000000000336001600160a01b0316630dfe16816040518163ffffffff1660e01b815260040160206040518083038186803b1580156101f257600080fd5b505afa158015610206573d6000803e3d6000fd5b505050506040513d602081101561021c57600080fd5b50516040805163d21220a760e01b81529051339163d21220a7916004808301926020929190829003018186803b15801561025557600080fd5b505afa158015610269573d6000803e3d6000fd5b505050506040513d602081101561027f57600080fd5b5051610910565b6001600160a01b0316336001600160a01b0316146102dd576040805162461bcd60e51b815260206004820152600f60248201526e125b9d985b1a590814995c5d595cdd608a1b604482015290519081900360640190fd5b8715806102e8575086155b6102f157600080fd5b871561036157336001600160a01b031663d21220a76040518163ffffffff1660e01b815260040160206040518083038186803b15801561033057600080fd5b505afa158015610344573d6000803e3d6000fd5b505050506040513d602081101561035a57600080fd5b50516103c7565b336001600160a01b0316630dfe16816040518163ffffffff1660e01b815260040160206040518083038186803b15801561039a57600080fd5b505afa1580156103ae573d6000803e3d6000fd5b505050506040513d60208110156103c457600080fd5b50515b846000815181106103d457fe5b6001600160a01b0390921660209283029190910190910152871561045c57336001600160a01b0316630dfe16816040518163ffffffff1660e01b815260040160206040518083038186803b15801561042b57600080fd5b505afa15801561043f573d6000803e3d6000fd5b505050506040513d602081101561045557600080fd5b50516104c2565b336001600160a01b031663d21220a76040518163ffffffff1660e01b815260040160206040518083038186803b15801561049557600080fd5b505afa1580156104a9573d6000803e3d6000fd5b505050506040513d60208110156104bf57600080fd5b50515b846001815181106104cf57fe5b6001600160a01b03909216602092830291909101909101526000881561050957846000815181106104fc57fe5b602002602001015161051f565b8460018151811061051657fe5b60200260200101515b9050806001600160a01b031663095ea7b37f0000000000000000000000000000000000000000000000000000000000000000846040518363ffffffff1660e01b815260040180836001600160a01b03166001600160a01b0316815260200182815260200192505050602060405180830381600087803b1580156105a157600080fd5b505af11580156105b5573d6000803e3d6000fd5b505050506040513d60208110156105cb57600080fd5b50600090506105fb7f000000000000000000000000000000000000000000000000000000000000000084886109d0565b60008151811061060757fe5b6020026020010151905060007f00000000000000000000000000000000000000000000000000000000000000006001600160a01b03166338ed1739858488308b6040518663ffffffff1660e01b81526004018086815260200185815260200180602001846001600160a01b03166001600160a01b03168152602001838152602001828103825285818151815260200191508051906020019060200280838360005b838110156106c05781810151838201526020016106a8565b505050509050019650505050505050600060405180830381600087803b1580156106e957600080fd5b505af11580156106fd573d6000803e3d6000fd5b505050506040513d6000823e601f3d908101601f19168201604052602081101561072657600080fd5b810190808051604051939291908464010000000082111561074657600080fd5b90830190602082018581111561075b57600080fd5b825186602082028301116401000000008211171561077857600080fd5b82525081516020918201928201910280838360005b838110156107a557818101518382015260200161078d565b505050509050016040525050506001815181106107be57fe5b6020026020010151905060008b6000146107ec57876001815181106107df57fe5b6020026020010151610802565b876000815181106107f957fe5b60200260200101515b6040805163a9059cbb60e01b81523360048201526024810186905290519192506001600160a01b0383169163a9059cbb916044808201926020929091908290030181600087803b15801561085557600080fd5b505af1158015610869573d6000803e3d6000fd5b505050506040513d602081101561087f57600080fd5b50506040805163a9059cbb60e01b81526001600160a01b038f81166004830152858503602483015291519183169163a9059cbb916044808201926020929091908290030181600087803b1580156108d557600080fd5b505af11580156108e9573d6000803e3d6000fd5b505050506040513d60208110156108ff57600080fd5b505050505050505050505050505050565b600080600061091f8585610b1d565b604080516bffffffffffffffffffffffff19606094851b811660208084019190915293851b81166034830152825160288184030181526048830184528051908501206001600160f81b031960688401529a90941b9093166069840152607d8301989098527f199766a94ebdbc73b48321d8b1c652061e46f522f99918baecc4d027dd149188609d808401919091528851808403909101815260bd909201909752805196019590952095945050505050565b6060600282511015610a29576040805162461bcd60e51b815260206004820152601e60248201527f556e697377617056324c6962726172793a20494e56414c49445f504154480000604482015290519081900360640190fd5b815167ffffffffffffffff81118015610a4157600080fd5b50604051908082528060200260200182016040528015610a6b578160200160208202803683370190505b5090508281600183510381518110610a7f57fe5b60209081029190910101528151600019015b8015610b1557600080610ace87866001860381518110610aad57fe5b6020026020010151878681518110610ac157fe5b6020026020010151610bfb565b91509150610af0848481518110610ae157fe5b60200260200101518383610cc9565b846001850381518110610aff57fe5b6020908102919091010152505060001901610a91565b509392505050565b600080826001600160a01b0316846001600160a01b03161415610b715760405162461bcd60e51b8152600401808060200182810382526025815260200180610eee6025913960400191505060405180910390fd5b826001600160a01b0316846001600160a01b031610610b91578284610b94565b83835b90925090506001600160a01b038216610bf4576040805162461bcd60e51b815260206004820152601e60248201527f556e697377617056324c6962726172793a205a45524f5f414444524553530000604482015290519081900360640190fd5b9250929050565b6000806000610c0a8585610b1d565b509050600080610c1b888888610910565b6001600160a01b0316630902f1ac6040518163ffffffff1660e01b815260040160606040518083038186803b158015610c5357600080fd5b505afa158015610c67573d6000803e3d6000fd5b505050506040513d6060811015610c7d57600080fd5b5080516020909101516dffffffffffffffffffffffffffff91821693501690506001600160a01b0387811690841614610cb7578082610cba565b81815b90999098509650505050505050565b6000808411610d095760405162461bcd60e51b815260040180806020018281038252602c815260200180610ec2602c913960400191505060405180910390fd5b600083118015610d195750600082115b610d545760405162461bcd60e51b8152600401808060200182810382526028815260200180610f136028913960400191505060405180910390fd5b6000610d786103e8610d6c868863ffffffff610db916565b9063ffffffff610db916565b90506000610d926103e5610d6c868963ffffffff610e2216565b9050610daf6001828481610da257fe5b049063ffffffff610e7216565b9695505050505050565b6000811580610dd457505080820282828281610dd157fe5b04145b610e1c576040805162461bcd60e51b815260206004820152601460248201527364732d6d6174682d6d756c2d6f766572666c6f7760601b604482015290519081900360640190fd5b92915050565b80820382811115610e1c576040805162461bcd60e51b815260206004820152601560248201527464732d6d6174682d7375622d756e646572666c6f7760581b604482015290519081900360640190fd5b80820182811015610e1c576040805162461bcd60e51b815260206004820152601460248201527364732d6d6174682d6164642d6f766572666c6f7760601b604482015290519081900360640190fdfe556e697377617056324c6962726172793a20494e53554646494349454e545f4f55545055545f414d4f554e54556e697377617056324c6962726172793a204944454e544943414c5f414444524553534553556e697377617056324c6962726172793a20494e53554646494349454e545f4c4951554944495459a2646970667358221220224ae426a92a61f9f63c5ae67a115623440b7891f7a099186468116d974b9c4164736f6c63430006060033",
  "linkReferences": {},
  "deployedLinkReferences": {}
}